:020000040000FA
:103D000005D00F013A9F82BE7EEF1EF00F013A9F51
:103D100020EE00F0700ED3129B8C82AEFED7900E78
:103D2000AB6E260EAC6EB886020ED56EAB98AE505A
:103D3000AE50D76AD66AF2944DD8D58E4BD8D59E60
:103D4000F2B4F7D7D6CFAFFFD7CFB0FFAB8820D92B
:103D50000F0AECE10F0E17D900EE04F019D90F0A83
:103D6000F9E00250040A07E00250050A01E110D907
:103D700002C0ECFFF3D710EE05F0006A016AEDCF48
:103D8000F4FFE6502FD8E250EA62FBD7E150E96237
:103D9000F8D70150F462CAD70050EF62C7D7006A63
:103DA000016A0650F66EA96E0750F76E08C0F8FF5C
:103DB00000EE0BF00A0E0560B9D7F9500544F9265C
:103DC00027D02FD039D04FD07CD0A8D0B0D0BAD007
:103DD0009BD7FF000400F2B4120082BEFCD782AE73
:103DE000FED71200011800C001F0006EE83A0F0B78
:103DF000001A0038F00B011A0038E844011AE00BF1
:103E0000011A001A120000030105FF84003D0000A2
:103E1000060EF66E3E0EF76E000EF86E0A0E0A6E75
:103E20000B6A0900F550A3D8DDDF0A06000E0B5A15
:103E30000A500B10F6E194D00900F550D3DFF6508C
:103E40003F0BFAE10050B7EC1FF00150B7EC1FF048
:103E50000A06000E0B5A0A500B10EEE185D0FF0047
:103E6000FF00FF00FF00C00EF616000EF65C400ECD
:103E7000F758000EF85802E6A66A17D0000EF65C56
:103E80003D0EF758000EF8580DE6000EF65C400E99
:103E9000F758000EF85806E7A66A07D0FF00FF00A3
:103EA000FF00FF00940EA66E81D8400EF65EE86A11
:103EB000F75AF85A0A2ED7D74FD0FF00FF00FF005D
:103EC000FF00C00EF616000EF65C400EF758000E0E
:103ED000F85802E6A66A16D0000EF65C3D0EF758BA
:103EE000000EF8580DE6000EF65C400EF758000E76
:103EF000F85806E7A66A06D0FF00FF00FF00FF00A3
:103F0000840EA66EEECFF5FF0D00F6503F0BFAE1E2
:103F10000A004CD809000A2ED4D71ED0A66AA68063
:103F2000A850A92A24D85EDF0A2EF9D719D0040E8A
:103F3000A66EECCFA8FF3AD8A6B2FED7A92A0A2EC1
:103F4000F8D70AD0C40EA66E0800EE50F5622CD841
:103F50000B000A2EFAD700D0A66A055008D842DF17
:103F6000005005D8015003D8040E0DD8F0D6036ECA
:103F70000F0A06E00350040A03E00350050A02E1B9
:103F8000050E01D8035004009EA8FED7AD6E1200A6
:103F9000ABB2FF0004009EAAFDD7AE50026E120025
:103FA000FF00FF00FF00A66AF56E0C000400550E2E
:0C3FB000A76EAA0EA76EA68200001200E9
:020000040030CA
:0100010049B5
:0100020018E5
:0100030002FA
:0100050025D5
:010006008079
:0100080003F4
:01000900C036
:01000A0003F2
:01000B00E014
:01000C0003F0
:01000D0040B2
:00000001FF
